{
  "contractName": "ERC20Mock",
  "abi": [
    {
      "inputs": [
        {
          "internalType": "string",
          "name": "name",
          "type": "string"
        },
        {
          "internalType": "string",
          "name": "symbol",
          "type": "string"
        },
        {
          "internalType": "address",
          "name": "kyc",
          "type": "address"
        }
      ],
      "stateMutability": "payable",
      "type": "constructor",
      "payable": true
    },
    {
      "anonymous": false,
      "inputs": [
        {
          "indexed": true,
          "internalType": "address",
          "name": "owner",
          "type": "address"
        },
        {
          "indexed": true,
          "internalType": "address",
          "name": "spender",
          "type": "address"
        },
        {
          "indexed": false,
          "internalType": "uint256",
          "name": "value",
          "type": "uint256"
        }
      ],
      "name": "Approval",
      "type": "event"
    },
    {
      "anonymous": false,
      "inputs": [
        {
          "indexed": true,
          "internalType": "address",
          "name": "previousOwner",
          "type": "address"
        },
        {
          "indexed": true,
          "internalType": "address",
          "name": "newOwner",
          "type": "address"
        }
      ],
      "name": "OwnershipTransferred",
      "type": "event"
    },
    {
      "anonymous": false,
      "inputs": [
        {
          "indexed": true,
          "internalType": "address",
          "name": "from",
          "type": "address"
        },
        {
          "indexed": true,
          "internalType": "address",
          "name": "to",
          "type": "address"
        },
        {
          "indexed": false,
          "internalType": "uint256",
          "name": "value",
          "type": "uint256"
        }
      ],
      "name": "Transfer",
      "type": "event"
    },
    {
      "inputs": [
        {
          "internalType": "address",
          "name": "owner",
          "type": "address"
        },
        {
          "internalType": "address",
          "name": "spender",
          "type": "address"
        }
      ],
      "name": "allowance",
      "outputs": [
        {
          "internalType": "uint256",
          "name": "",
          "type": "uint256"
        }
      ],
      "stateMutability": "view",
      "type": "function",
      "constant": true
    },
    {
      "inputs": [
        {
          "internalType": "address",
          "name": "spender",
          "type": "address"
        },
        {
          "internalType": "uint256",
          "name": "amount",
          "type": "uint256"
        }
      ],
      "name": "approve",
      "outputs": [
        {
          "internalType": "bool",
          "name": "",
          "type": "bool"
        }
      ],
      "stateMutability": "nonpayable",
      "type": "function"
    },
    {
      "inputs": [
        {
          "internalType": "address",
          "name": "account",
          "type": "address"
        }
      ],
      "name": "balanceOf",
      "outputs": [
        {
          "internalType": "uint256",
          "name": "",
          "type": "uint256"
        }
      ],
      "stateMutability": "view",
      "type": "function",
      "constant": true
    },
    {
      "inputs": [],
      "name": "decimals",
      "outputs": [
        {
          "internalType": "uint8",
          "name": "",
          "type": "uint8"
        }
      ],
      "stateMutability": "view",
      "type": "function",
      "constant": true
    },
    {
      "inputs": [
        {
          "internalType": "address",
          "name": "spender",
          "type": "address"
        },
        {
          "internalType": "uint256",
          "name": "subtractedValue",
          "type": "uint256"
        }
      ],
      "name": "decreaseAllowance",
      "outputs": [
        {
          "internalType": "bool",
          "name": "",
          "type": "bool"
        }
      ],
      "stateMutability": "nonpayable",
      "type": "function"
    },
    {
      "inputs": [
        {
          "internalType": "address",
          "name": "spender",
          "type": "address"
        },
        {
          "internalType": "uint256",
          "name": "addedValue",
          "type": "uint256"
        }
      ],
      "name": "increaseAllowance",
      "outputs": [
        {
          "internalType": "bool",
          "name": "",
          "type": "bool"
        }
      ],
      "stateMutability": "nonpayable",
      "type": "function"
    },
    {
      "inputs": [],
      "name": "kycContract",
      "outputs": [
        {
          "internalType": "contract IKyc",
          "name": "",
          "type": "address"
        }
      ],
      "stateMutability": "view",
      "type": "function",
      "constant": true
    },
    {
      "inputs": [],
      "name": "name",
      "outputs": [
        {
          "internalType": "string",
          "name": "",
          "type": "string"
        }
      ],
      "stateMutability": "view",
      "type": "function",
      "constant": true
    },
    {
      "inputs": [],
      "name": "owner",
      "outputs": [
        {
          "internalType": "address",
          "name": "",
          "type": "address"
        }
      ],
      "stateMutability": "view",
      "type": "function",
      "constant": true
    },
    {
      "inputs": [],
      "name": "renounceOwnership",
      "outputs": [],
      "stateMutability": "nonpayable",
      "type": "function"
    },
    {
      "inputs": [],
      "name": "symbol",
      "outputs": [
        {
          "internalType": "string",
          "name": "",
          "type": "string"
        }
      ],
      "stateMutability": "view",
      "type": "function",
      "constant": true
    },
    {
      "inputs": [],
      "name": "totalSupply",
      "outputs": [
        {
          "internalType": "uint256",
          "name": "",
          "type": "uint256"
        }
      ],
      "stateMutability": "view",
      "type": "function",
      "constant": true
    },
    {
      "inputs": [
        {
          "internalType": "address",
          "name": "to",
          "type": "address"
        },
        {
          "internalType": "uint256",
          "name": "amount",
          "type": "uint256"
        }
      ],
      "name": "transfer",
      "outputs": [
        {
          "internalType": "bool",
          "name": "",
          "type": "bool"
        }
      ],
      "stateMutability": "nonpayable",
      "type": "function"
    },
    {
      "inputs": [
        {
          "internalType": "address",
          "name": "from",
          "type": "address"
        },
        {
          "internalType": "address",
          "name": "to",
          "type": "address"
        },
        {
          "internalType": "uint256",
          "name": "amount",
          "type": "uint256"
        }
      ],
      "name": "transferFrom",
      "outputs": [
        {
          "internalType": "bool",
          "name": "",
          "type": "bool"
        }
      ],
      "stateMutability": "nonpayable",
      "type": "function"
    },
    {
      "inputs": [
        {
          "internalType": "address",
          "name": "newOwner",
          "type": "address"
        }
      ],
      "name": "transferOwnership",
      "outputs": [],
      "stateMutability": "nonpayable",
      "type": "function"
    },
    {
      "inputs": [
        {
          "internalType": "address",
          "name": "",
          "type": "address"
        }
      ],
      "name": "usersTransaction",
      "outputs": [
        {
          "internalType": "address",
          "name": "walletAddress",
          "type": "address"
        },
        {
          "internalType": "uint256",
          "name": "amount",
          "type": "uint256"
        },
        {
          "internalType": "uint256",
          "name": "timestamp",
          "type": "uint256"
        }
      ],
      "stateMutability": "view",
      "type": "function",
      "constant": true
    },
    {
      "inputs": [
        {
          "internalType": "address",
          "name": "account",
          "type": "address"
        },
        {
          "internalType": "uint256",
          "name": "amount",
          "type": "uint256"
        }
      ],
      "name": "mint",
      "outputs": [],
      "stateMutability": "nonpayable",
      "type": "function"
    },
    {
      "inputs": [
        {
          "internalType": "address",
          "name": "account",
          "type": "address"
        },
        {
          "internalType": "uint256",
          "name": "amount",
          "type": "uint256"
        }
      ],
      "name": "burn",
      "outputs": [],
      "stateMutability": "nonpayable",
      "type": "function"
    },
    {
      "inputs": [
        {
          "internalType": "address",
          "name": "kyc",
          "type": "address"
        }
      ],
      "name": "setKycContract",
      "outputs": [],
      "stateMutability": "nonpayable",
      "type": "function"
    },
    {
      "inputs": [
        {
          "internalType": "uint256",
          "name": "teir",
          "type": "uint256"
        },
        {
          "internalType": "address",
          "name": "from",
          "type": "address"
        },
        {
          "internalType": "address",
          "name": "to",
          "type": "address"
        },
        {
          "internalType": "uint256",
          "name": "amount",
          "type": "uint256"
        }
      ],
      "name": "amountTransferable",
      "outputs": [
        {
          "internalType": "uint256",
          "name": "",
          "type": "uint256"
        }
      ],
      "stateMutability": "view",
      "type": "function",
      "constant": true
    },
    {
      "inputs": [
        {
          "internalType": "address",
          "name": "owner",
          "type": "address"
        },
        {
          "internalType": "address",
          "name": "spender",
          "type": "address"
        },
        {
          "internalType": "uint256",
          "name": "value",
          "type": "uint256"
        }
      ],
      "name": "approveInternal",
      "outputs": [],
      "stateMutability": "nonpayable",
      "type": "function"
    },
    {
      "inputs": [
        {
          "internalType": "address",
          "name": "from",
          "type": "address"
        }
      ],
      "name": "checkStatus",
      "outputs": [
        {
          "internalType": "bool",
          "name": "",
          "type": "bool"
        },
        {
          "internalType": "uint256",
          "name": "",
          "type": "uint256"
        }
      ],
      "stateMutability": "view",
      "type": "function",
      "constant": true
    }
  ],
  "bytecode": "0x60806040526040516200358c3803806200358c83398181016040528101906200002991906200053d565b828281600390805190602001906200004392919062000404565b5080600490805190602001906200005c92919062000404565b5050506200007f62000073620000e460201b60201c565b620000ec60201b60201c565b80600660006101000a81548173ffffffffffffffffffffffffffffffffffffffff021916908373ffffffffffffffffffffffffffffffffffffffff160217905550620000db3368056bc75e2d63100000620001b260201b60201c565b505050620008e1565b600033905090565b6000600560009054906101000a900473ffffffffffffffffffffffffffffffffffffffff16905081600560006101000a81548173ffffffffffffffffffffffffffffffffffffffff021916908373ffffffffffffffffffffffffffffffffffffffff1602179055508173ffffffffffffffffffffffffffffffffffffffff168173ffffffffffffffffffffffffffffffffffffffff167f8be0079c531659141344cd1fd0a4f28419497f9722a3daafe3b4186f6b6457e060405160405180910390a35050565b620001c2620000e460201b60201c565b73ffffffffffffffffffffffffffffffffffffffff16620001e86200025760201b60201c565b73ffffffffffffffffffffffffffffffffffffffff161462000241576040517f08c379a000000000000000000000000000000000000000000000000000000000815260040162000238906200065a565b60405180910390fd5b6200025382826200028160201b60201c565b5050565b6000600560009054906101000a900473ffffffffffffffffffffffffffffffffffffffff16905090565b600073ffffffffffffffffffffffffffffffffffffffff168273ffffffffffffffffffffffffffffffffffffffff161415620002f4576040517f08c379a0000000000000000000000000000000000000000000000000000000008152600401620002eb906200067c565b60405180910390fd5b6200030860008383620003fa60201b60201c565b80600260008282546200031c919062000733565b92505081905550806000808473ffffffffffffffffffffffffffffffffffffffff1673ffffffffffffffffffffffffffffffffffffffff168152602001908152602001600020600082825462000373919062000733565b925050819055508173ffffffffffffffffffffffffffffffffffffffff16600073ffffffffffffffffffffffffffffffffffffffff167fddf252ad1be2c89b69c2b068fc378daa952ba7f163c4a11628f55a4df523b3ef83604051620003da91906200069e565b60405180910390a3620003f660008383620003ff60201b60201c565b5050565b505050565b505050565b828054620004129062000804565b90600052602060002090601f01602090048101928262000436576000855562000482565b82601f106200045157805160ff191683800117855562000482565b8280016001018555821562000482579182015b828111156200048157825182559160200191906001019062000464565b5b50905062000491919062000495565b5090565b5b80821115620004b057600081600090555060010162000496565b5090565b6000620004cb620004c584620006ef565b620006bb565b905082815260208101848484011115620004e457600080fd5b620004f1848285620007ce565b509392505050565b6000815190506200050a81620008c7565b92915050565b600082601f8301126200052257600080fd5b815162000534848260208601620004b4565b91505092915050565b6000806000606084860312156200055357600080fd5b600084015167ffffffffffffffff8111156200056e57600080fd5b6200057c8682870162000510565b935050602084015167ffffffffffffffff8111156200059a57600080fd5b620005a88682870162000510565b9250506040620005bb86828701620004f9565b9150509250925092565b6000620005d460208362000722565b91507f4f776e61626c653a2063616c6c6572206973206e6f7420746865206f776e65726000830152602082019050919050565b600062000616601f8362000722565b91507f45524332303a206d696e7420746f20746865207a65726f2061646472657373006000830152602082019050919050565b6200065481620007c4565b82525050565b600060208201905081810360008301526200067581620005c5565b9050919050565b60006020820190508181036000830152620006978162000607565b9050919050565b6000602082019050620006b5600083018462000649565b92915050565b6000604051905081810181811067ffffffffffffffff82111715620006e557620006e462000898565b5b8060405250919050565b600067ffffffffffffffff8211156200070d576200070c62000898565b5b601f19601f8301169050602081019050919050565b600082825260208201905092915050565b60006200074082620007c4565b91506200074d83620007c4565b9250827fffffffffffffffffffffffffffffffffffffffffffffffffffffffffffffffff038211156200078557620007846200083a565b5b828201905092915050565b60006200079d82620007a4565b9050919050565b600073ffffffffffffffffffffffffffffffffffffffff82169050919050565b6000819050919050565b60005b83811015620007ee578082015181840152602081019050620007d1565b83811115620007fe576000848401525b50505050565b600060028204905060018216806200081d57607f821691505b6020821081141562000834576200083362000869565b5b50919050565b7f4e487b7100000000000000000000000000000000000000000000000000000000600052601160045260246000fd5b7f4e487b7100000000000000000000000000000000000000000000000000000000600052602260045260246000fd5b7f4e487b7100000000000000000000000000000000000000000000000000000000600052604160045260246000fd5b620008d28162000790565b8114620008de57600080fd5b50565b612c9b80620008f16000396000f3fe608060405234801561001057600080fd5b50600436106101425760003560e01c806370a08231116100b8578063a457c2d71161007c578063a457c2d71461037c578063a9059cbb146103ac578063b173483d146103dc578063dd62ed3e146103f8578063e168368c14610428578063f2fde38b1461045857610142565b806370a08231146102ea578063715018a61461031a5780638da5cb5b1461032457806395d89b41146103425780639dc29fac1461036057610142565b8063340190ec1161010a578063340190ec14610201578063395093511461023257806340c10f191461026257806356189cb41461027e5780635e2ce49d1461029a5780636d3123eb146102cc57610142565b806306fdde0314610147578063095ea7b31461016557806318160ddd1461019557806323b872dd146101b3578063313ce567146101e3575b600080fd5b61014f610474565b60405161015c9190612795565b60405180910390f35b61017f600480360381019061017a9190611f89565b610506565b60405161018c9190612736565b60405180910390f35b61019d610529565b6040516101aa91906129f7565b60405180910390f35b6101cd60048036038101906101c89190611f3a565b610533565b6040516101da9190612736565b60405180910390f35b6101eb610562565b6040516101f89190612a12565b60405180910390f35b61021b60048036038101906102169190611ed5565b61056b565b604051610229929190612751565b60405180910390f35b61024c60048036038101906102479190611f89565b61062c565b6040516102599190612736565b60405180910390f35b61027c60048036038101906102779190611f89565b610663565b005b61029860048036038101906102939190611f3a565b6106ed565b005b6102b460048036038101906102af9190611ed5565b6106fd565b6040516102c3939291906126ff565b60405180910390f35b6102d4610747565b6040516102e1919061277a565b60405180910390f35b61030460048036038101906102ff9190611ed5565b61076d565b60405161031191906129f7565b60405180910390f35b6103226107b5565b005b61032c61083d565b60405161033991906126e4565b60405180910390f35b61034a610867565b6040516103579190612795565b60405180910390f35b61037a60048036038101906103759190611f89565b6108f9565b005b61039660048036038101906103919190611f89565b610983565b6040516103a39190612736565b60405180910390f35b6103c660048036038101906103c19190611f89565b6109fa565b6040516103d39190612736565b60405180910390f35b6103f660048036038101906103f19190611ed5565b610a1d565b005b610412600480360381019061040d9190611efe565b610add565b60405161041f91906129f7565b60405180910390f35b610442600480360381019061043d9190612001565b610b64565b60405161044f91906129f7565b60405180910390f35b610472600480360381019061046d9190611ed5565b610e74565b005b60606003805461048390612b7f565b80601f01602080910402602001604051908101604052809291908181526020018280546104af90612b7f565b80156104fc5780601f106104d1576101008083540402835291602001916104fc565b820191906000526020600020905b8154815290600101906020018083116104df57829003601f168201915b5050505050905090565b600080610511610f6c565b905061051e818585610f74565b600191505092915050565b6000600254905090565b60008061053e610f6c565b905061054b85828561113f565b6105568585856111cb565b60019150509392505050565b60006012905090565b600080600080600660009054906101000a900473ffffffffffffffffffffffffffffffffffffffff1673ffffffffffffffffffffffffffffffffffffffff1663babcc539866040518263ffffffff1660e01b81526004016105cc91906126e4565b604080518083038186803b1580156105e357600080fd5b505afa1580156105f7573d6000803e3d6000fd5b505050506040513d601f19601f8201168201806040525081019061061b9190611fc5565b915091508181935093505050915091565b600080610637610f6c565b90506106588185856106498589610add565b6106539190612a49565b610f74565b600191505092915050565b61066b610f6c565b73ffffffffffffffffffffffffffffffffffffffff1661068961083d565b73ffffffffffffffffffffffffffffffffffffffff16146106df576040517f08c379a00000000000000000000000000000000000000000000000000000000081526004016106d6906128f7565b60405180910390fd5b6106e982826117f9565b5050565b6106f8838383610f74565b505050565b60076020528060005260406000206000915090508060000160009054906101000a900473ffffffffffffffffffffffffffffffffffffffff16908060010154908060020154905083565b600660009054906101000a900473ffffffffffffffffffffffffffffffffffffffff1681565b60008060008373ffffffffffffffffffffffffffffffffffffffff1673ffffffffffffffffffffffffffffffffffffffff168152602001908152602001600020549050919050565b6107bd610f6c565b73ffffffffffffffffffffffffffffffffffffffff166107db61083d565b73ffffffffffffffffffffffffffffffffffffffff1614610831576040517f08c379a0000000000000000000000000000000000000000000000000000000008152600401610828906128f7565b60405180910390fd5b61083b6000611959565b565b6000600560009054906101000a900473ffffffffffffffffffffffffffffffffffffffff16905090565b60606004805461087690612b7f565b80601f01602080910402602001604051908101604052809291908181526020018280546108a290612b7f565b80156108ef5780601f106108c4576101008083540402835291602001916108ef565b820191906000526020600020905b8154815290600101906020018083116108d257829003601f168201915b5050505050905090565b610901610f6c565b73ffffffffffffffffffffffffffffffffffffffff1661091f61083d565b73ffffffffffffffffffffffffffffffffffffffff1614610975576040517f08c379a000000000000000000000000000000000000000000000000000000000815260040161096c906128f7565b60405180910390fd5b61097f8282611a1f565b5050565b60008061098e610f6c565b9050600061099c8286610add565b9050838110156109e1576040517f08c379a00000000000000000000000000000000000000000000000000000000081526004016109d890612997565b60405180910390fd5b6109ee8286868403610f74565b60019250505092915050565b600080610a05610f6c565b9050610a128185856111cb565b600191505092915050565b610a25610f6c565b73ffffffffffffffffffffffffffffffffffffffff16610a4361083d565b73ffffffffffffffffffffffffffffffffffffffff1614610a99576040517f08c379a0000000000000000000000000000000000000000000000000000000008152600401610a90906128f7565b60405180910390fd5b80600660006101000a81548173ffffffffffffffffffffffffffffffffffffffff021916908373ffffffffffffffffffffffffffffffffffffffff16021790555050565b6000600160008473ffffffffffffffffffffffffffffffffffffffff1673ffffffffffffffffffffffffffffffffffffffff16815260200190815260200160002060008373ffffffffffffffffffffffffffffffffffffffff1673ffffffffffffffffffffffffffffffffffffffff16815260200190815260200160002054905092915050565b6000808511610ba8576040517f08c379a0000000000000000000000000000000000000000000000000000000008152600401610b9f90612877565b60405180910390fd5b600185148015610bc05750683635c9adc5dea0000082115b15610c00576040517f08c379a0000000000000000000000000000000000000000000000000000000008152600401610bf790612817565b60405180910390fd5b600285148015610c185750686c6b935b8bbd40000082115b15610c58576040517f08c379a0000000000000000000000000000000000000000000000000000000008152600401610c4f906129b7565b60405180910390fd5b600385148015610c70575068a2a15d09519be0000082115b15610cb0576040517f08c379a0000000000000000000000000000000000000000000000000000000008152600401610ca7906128d7565b60405180910390fd5b6000600760008673ffffffffffffffffffffffffffffffffffffffff1673ffffffffffffffffffffffffffffffffffffffff1681526020019081526020016000206040518060600160405290816000820160009054906101000a900473ffffffffffffffffffffffffffffffffffffffff1673ffffffffffffffffffffffffffffffffffffffff1673ffffffffffffffffffffffffffffffffffffffff1681526020016001820154815260200160028201548152505090506001861415610dbe5762015180816040015142610d859190612a9f565b1115610d9d57683635c9adc5dea00000915050610e6c565b8060200151683635c9adc5dea00000610db69190612a9f565b915050610e6c565b6002861415610e145762015180816040015142610ddb9190612a9f565b1115610df357686c6b935b8bbd400000915050610e6c565b8060200151686c6b935b8bbd400000610e0c9190612a9f565b915050610e6c565b6003861415610e6a5762015180816040015142610e319190612a9f565b1115610e495768a2a15d09519be00000915050610e6c565b806020015168a2a15d09519be00000610e629190612a9f565b915050610e6c565b505b949350505050565b610e7c610f6c565b73ffffffffffffffffffffffffffffffffffffffff16610e9a61083d565b73ffffffffffffffffffffffffffffffffffffffff1614610ef0576040517f08c379a0000000000000000000000000000000000000000000000000000000008152600401610ee7906128f7565b60405180910390fd5b600073ffffffffffffffffffffffffffffffffffffffff168173ffffffffffffffffffffffffffffffffffffffff161415610f60576040517f08c379a0000000000000000000000000000000000000000000000000000000008152600401610f5790612837565b60405180910390fd5b610f6981611959565b50565b600033905090565b600073ffffffffffffffffffffffffffffffffffffffff168373ffffffffffffffffffffffffffffffffffffffff161415610fe4576040517f08c379a0000000000000000000000000000000000000000000000000000000008152600401610fdb90612977565b60405180910390fd5b600073ffffffffffffffffffffffffffffffffffffffff168273ffffffffffffffffffffffffffffffffffffffff161415611054576040517f08c379a000000000000000000000000000000000000000000000000000000000815260040161104b90612857565b60405180910390fd5b80600160008573ffffffffffffffffffffffffffffffffffffffff1673ffffffffffffffffffffffffffffffffffffffff16815260200190815260200160002060008473ffffffffffffffffffffffffffffffffffffffff1673ffffffffffffffffffffffffffffffffffffffff168152602001908152602001600020819055508173ffffffffffffffffffffffffffffffffffffffff168373ffffffffffffffffffffffffffffffffffffffff167f8c5be1e5ebec7d5bd14f71427d1e84f3dd0314c0f7b2291e5b200ac8c7c3b9258360405161113291906129f7565b60405180910390a3505050565b600061114b8484610add565b90507fffffffffffffffffffffffffffffffffffffffffffffffffffffffffffffffff81146111c557818110156111b7576040517f08c379a00000000000000000000000000000000000000000000000000000000081526004016111ae90612897565b60405180910390fd5b6111c48484848403610f74565b5b50505050565b600073ffffffffffffffffffffffffffffffffffffffff168373ffffffffffffffffffffffffffffffffffffffff16141561123b576040517f08c379a000000000000000000000000000000000000000000000000000000000815260040161123290612937565b60405180910390fd5b600073ffffffffffffffffffffffffffffffffffffffff168273ffffffffffffffffffffffffffffffffffffffff1614156112ab576040517f08c379a00000000000000000000000000000000000000000000000000000000081526004016112a2906127b7565b60405180910390fd5b6112b6838383611bf6565b6000600760008573ffffffffffffffffffffffffffffffffffffffff1673ffffffffffffffffffffffffffffffffffffffff1681526020019081526020016000206040518060600160405290816000820160009054906101000a900473ffffffffffffffffffffffffffffffffffffffff1673ffffffffffffffffffffffffffffffffffffffff1673ffffffffffffffffffffffffffffffffffffffff1681526020016001820154815260200160028201548152505090508373ffffffffffffffffffffffffffffffffffffffff16816000015173ffffffffffffffffffffffffffffffffffffffff1614156115c857600080600660009054906101000a900473ffffffffffffffffffffffffffffffffffffffff1673ffffffffffffffffffffffffffffffffffffffff1663babcc539876040518263ffffffff1660e01b815260040161140491906126e4565b604080518083038186803b15801561141b57600080fd5b505afa15801561142f573d6000803e3d6000fd5b505050506040513d601f19601f820116820180604052508101906114539190611fc5565b91509150811561158657600061146b82888888610b64565b90508481106114845761147f878787611bfb565b6114bf565b6040517f08c379a00000000000000000000000000000000000000000000000000000000081526004016114b690612957565b60405180910390fd5b8484602001516114cf9190612a49565b8460200181815250504284604001818152505083600760008973ffffffffffffffffffffffffffffffffffffffff1673ffffffffffffffffffffffffffffffffffffffff16815260200190815260200160002060008201518160000160006101000a81548173ffffffffffffffffffffffffffffffffffffffff021916908373ffffffffffffffffffffffffffffffffffffffff1602179055506020820151816001015560408201518160020155905050506115c1565b6040517f08c379a00000000000000000000000000000000000000000000000000000000081526004016115b8906127f7565b60405180910390fd5b50506117f3565b600080600660009054906101000a900473ffffffffffffffffffffffffffffffffffffffff1673ffffffffffffffffffffffffffffffffffffffff1663babcc539876040518263ffffffff1660e01b815260040161162691906126e4565b604080518083038186803b15801561163d57600080fd5b505afa158015611651573d6000803e3d6000fd5b505050506040513d601f19601f820116820180604052508101906116759190611fc5565b9150915081156117b557600061168d82888888610b64565b90508481106116a6576116a1878787611bfb565b6116e1565b6040517f08c379a00000000000000000000000000000000000000000000000000000000081526004016116d890612957565b60405180910390fd5b60405180606001604052808873ffffffffffffffffffffffffffffffffffffffff16815260200186815260200142815250600760008973ffffffffffffffffffffffffffffffffffffffff1673ffffffffffffffffffffffffffffffffffffffff16815260200190815260200160002060008201518160000160006101000a81548173ffffffffffffffffffffffffffffffffffffffff021916908373ffffffffffffffffffffffffffffffffffffffff1602179055506020820151816001015560408201518160020155905050506117f0565b6040517f08c379a00000000000000000000000000000000000000000000000000000000081526004016117e7906127f7565b60405180910390fd5b50505b50505050565b600073ffffffffffffffffffffffffffffffffffffffff168273ffffffffffffffffffffffffffffffffffffffff161415611869576040517f08c379a0000000000000000000000000000000000000000000000000000000008152600401611860906129d7565b60405180910390fd5b61187560008383611bf6565b80600260008282546118879190612a49565b92505081905550806000808473ffffffffffffffffffffffffffffffffffffffff1673ffffffffffffffffffffffffffffffffffffffff16815260200190815260200160002060008282546118dc9190612a49565b925050819055508173ffffffffffffffffffffffffffffffffffffffff16600073ffffffffffffffffffffffffffffffffffffffff167fddf252ad1be2c89b69c2b068fc378daa952ba7f163c4a11628f55a4df523b3ef8360405161194191906129f7565b60405180910390a361195560008383611e7c565b5050565b6000600560009054906101000a900473ffffffffffffffffffffffffffffffffffffffff16905081600560006101000a81548173ffffffffffffffffffffffffffffffffffffffff021916908373ffffffffffffffffffffffffffffffffffffffff1602179055508173ffffffffffffffffffffffffffffffffffffffff168173ffffffffffffffffffffffffffffffffffffffff167f8be0079c531659141344cd1fd0a4f28419497f9722a3daafe3b4186f6b6457e060405160405180910390a35050565b600073ffffffffffffffffffffffffffffffffffffffff168273ffffffffffffffffffffffffffffffffffffffff161415611a8f576040517f08c379a0000000000000000000000000000000000000000000000000000000008152600401611a8690612917565b60405180910390fd5b611a9b82600083611bf6565b60008060008473ffffffffffffffffffffffffffffffffffffffff1673ffffffffffffffffffffffffffffffffffffffff16815260200190815260200160002054905081811015611b21576040517f08c379a0000000000000000000000000000000000000000000000000000000008152600401611b18906127d7565b60405180910390fd5b8181036000808573ffffffffffffffffffffffffffffffffffffffff1673ffffffffffffffffffffffffffffffffffffffff168152602001908152602001600020819055508160026000828254611b789190612a9f565b92505081905550600073ffffffffffffffffffffffffffffffffffffffff168373ffffffffffffffffffffffffffffffffffffffff167fddf252ad1be2c89b69c2b068fc378daa952ba7f163c4a11628f55a4df523b3ef84604051611bdd91906129f7565b60405180910390a3611bf183600084611e7c565b505050565b505050565b600073ffffffffffffffffffffffffffffffffffffffff168373ffffffffffffffffffffffffffffffffffffffff161415611c6b576040517f08c379a0000000000000000000000000000000000000000000000000000000008152600401611c6290612937565b60405180910390fd5b600073ffffffffffffffffffffffffffffffffffffffff168273ffffffffffffffffffffffffffffffffffffffff161415611cdb576040517f08c379a0000000000000000000000000000000000000000000000000000000008152600401611cd2906127b7565b60405180910390fd5b611ce6838383611bf6565b60008060008573ffffffffffffffffffffffffffffffffffffffff1673ffffffffffffffffffffffffffffffffffffffff16815260200190815260200160002054905081811015611d6c576040517f08c379a0000000000000000000000000000000000000000000000000000000008152600401611d63906128b7565b60405180910390fd5b8181036000808673ffffffffffffffffffffffffffffffffffffffff1673ffffffffffffffffffffffffffffffffffffffff16815260200190815260200160002081905550816000808573ffffffffffffffffffffffffffffffffffffffff1673ffffffffffffffffffffffffffffffffffffffff1681526020019081526020016000206000828254611dff9190612a49565b925050819055508273ffffffffffffffffffffffffffffffffffffffff168473ffffffffffffffffffffffffffffffffffffffff167fddf252ad1be2c89b69c2b068fc378daa952ba7f163c4a11628f55a4df523b3ef84604051611e6391906129f7565b60405180910390a3611e76848484611e7c565b50505050565b505050565b600081359050611e9081612c20565b92915050565b600081519050611ea581612c37565b92915050565b600081359050611eba81612c4e565b92915050565b600081519050611ecf81612c4e565b92915050565b600060208284031215611ee757600080fd5b6000611ef584828501611e81565b91505092915050565b60008060408385031215611f1157600080fd5b6000611f1f85828601611e81565b9250506020611f3085828601611e81565b9150509250929050565b600080600060608486031215611f4f57600080fd5b6000611f5d86828701611e81565b9350506020611f6e86828701611e81565b9250506040611f7f86828701611eab565b9150509250925092565b60008060408385031215611f9c57600080fd5b6000611faa85828601611e81565b9250506020611fbb85828601611eab565b9150509250929050565b60008060408385031215611fd857600080fd5b6000611fe685828601611e96565b9250506020611ff785828601611ec0565b9150509250929050565b6000806000806080858703121561201757600080fd5b600061202587828801611eab565b945050602061203687828801611e81565b935050604061204787828801611e81565b925050606061205887828801611eab565b91505092959194509250565b61206d81612ad3565b82525050565b61207c81612ae5565b82525050565b61208b81612b28565b82525050565b600061209c82612a2d565b6120a68185612a38565b93506120b6818560208601612b4c565b6120bf81612c0f565b840191505092915050565b60006120d7602383612a38565b91507f45524332303a207472616e7366657220746f20746865207a65726f206164647260008301527f65737300000000000000000000000000000000000000000000000000000000006020830152604082019050919050565b600061213d602283612a38565b91507f45524332303a206275726e20616d6f756e7420657863656564732062616c616e60008301527f63650000000000000000000000000000000000000000000000000000000000006020830152604082019050919050565b60006121a3600e83612a38565b91507f4e6f74204b6e6f776e20557365720000000000000000000000000000000000006000830152602082019050919050565b60006121e3601583612a38565b91507f41626f7665204c696d6974206f662074656972203100000000000000000000006000830152602082019050919050565b6000612223602683612a38565b91507f4f776e61626c653a206e6577206f776e657220697320746865207a65726f206160008301527f64647265737300000000000000000000000000000000000000000000000000006020830152604082019050919050565b6000612289602283612a38565b91507f45524332303a20617070726f766520746f20746865207a65726f20616464726560008301527f73730000000000000000000000000000000000000000000000000000000000006020830152604082019050919050565b60006122ef601483612a38565b91507f4e6f207465697220666f722074686520757365720000000000000000000000006000830152602082019050919050565b600061232f601d83612a38565b91507f45524332303a20696e73756666696369656e7420616c6c6f77616e63650000006000830152602082019050919050565b600061236f602683612a38565b91507f45524332303a207472616e7366657220616d6f756e742065786365656473206260008301527f616c616e636500000000000000000000000000000000000000000000000000006020830152604082019050919050565b60006123d5601583612a38565b91507f41626f7665204c696d6974206f662074656972203300000000000000000000006000830152602082019050919050565b6000612415602083612a38565b91507f4f776e61626c653a2063616c6c6572206973206e6f7420746865206f776e65726000830152602082019050919050565b6000612455602183612a38565b91507f45524332303a206275726e2066726f6d20746865207a65726f2061646472657360008301527f73000000000000000000000000000000000000000000000000000000000000006020830152604082019050919050565b60006124bb602583612a38565b91507f45524332303a207472616e736665722066726f6d20746865207a65726f20616460008301527f64726573730000000000000000000000000000000000000000000000000000006020830152604082019050919050565b6000612521602283612a38565b91507f5472616e73616374696f6e206c696d6974207265616368656420666f7220757360008301527f65720000000000000000000000000000000000000000000000000000000000006020830152604082019050919050565b6000612587602483612a38565b91507f45524332303a20617070726f76652066726f6d20746865207a65726f2061646460008301527f72657373000000000000000000000000000000000000000000000000000000006020830152604082019050919050565b60006125ed602583612a38565b91507f45524332303a2064656372656173656420616c6c6f77616e63652062656c6f7760008301527f207a65726f0000000000000000000000000000000000000000000000000000006020830152604082019050919050565b6000612653601583612a38565b91507f41626f7665204c696d6974206f662074656972203200000000000000000000006000830152602082019050919050565b6000612693601f83612a38565b91507f45524332303a206d696e7420746f20746865207a65726f2061646472657373006000830152602082019050919050565b6126cf81612b11565b82525050565b6126de81612b1b565b82525050565b60006020820190506126f96000830184612064565b92915050565b60006060820190506127146000830186612064565b61272160208301856126c6565b61272e60408301846126c6565b949350505050565b600060208201905061274b6000830184612073565b92915050565b60006040820190506127666000830185612073565b61277360208301846126c6565b9392505050565b600060208201905061278f6000830184612082565b92915050565b600060208201905081810360008301526127af8184612091565b905092915050565b600060208201905081810360008301526127d0816120ca565b9050919050565b600060208201905081810360008301526127f081612130565b9050919050565b6000602082019050818103600083015261281081612196565b9050919050565b60006020820190508181036000830152612830816121d6565b9050919050565b6000602082019050818103600083015261285081612216565b9050919050565b600060208201905081810360008301526128708161227c565b9050919050565b60006020820190508181036000830152612890816122e2565b9050919050565b600060208201905081810360008301526128b081612322565b9050919050565b600060208201905081810360008301526128d081612362565b9050919050565b600060208201905081810360008301526128f0816123c8565b9050919050565b6000602082019050818103600083015261291081612408565b9050919050565b6000602082019050818103600083015261293081612448565b9050919050565b60006020820190508181036000830152612950816124ae565b9050919050565b6000602082019050818103600083015261297081612514565b9050919050565b600060208201905081810360008301526129908161257a565b9050919050565b600060208201905081810360008301526129b0816125e0565b9050919050565b600060208201905081810360008301526129d081612646565b9050919050565b600060208201905081810360008301526129f081612686565b9050919050565b6000602082019050612a0c60008301846126c6565b92915050565b6000602082019050612a2760008301846126d5565b92915050565b600081519050919050565b600082825260208201905092915050565b6000612a5482612b11565b9150612a5f83612b11565b9250827fffffffffffffffffffffffffffffffffffffffffffffffffffffffffffffffff03821115612a9457612a93612bb1565b5b828201905092915050565b6000612aaa82612b11565b9150612ab583612b11565b925082821015612ac857612ac7612bb1565b5b828203905092915050565b6000612ade82612af1565b9050919050565b60008115159050919050565b600073ffffffffffffffffffffffffffffffffffffffff82169050919050565b6000819050919050565b600060ff82169050919050565b6000612b3382612b3a565b9050919050565b6000612b4582612af1565b9050919050565b60005b83811015612b6a578082015181840152602081019050612b4f565b83811115612b79576000848401525b50505050565b60006002820490506001821680612b9757607f821691505b60208210811415612bab57612baa612be0565b5b50919050565b7f4e487b7100000000000000000000000000000000000000000000000000000000600052601160045260246000fd5b7f4e487b7100000000000000000000000000000000000000000000000000000000600052602260045260246000fd5b6000601f19601f8301169050919050565b612c2981612ad3565b8114612c3457600080fd5b50565b612c4081612ae5565b8114612c4b57600080fd5b50565b612c5781612b11565b8114612c6257600080fd5b5056fea26469706673582212203f020f5ce91d0b2fe2c3df1f3e4eadc40da26ceb8a1e22d8a5fa0b6574fe5c2a64736f6c63430008000033",
  "immutableReferences": {},
  "source": "// SPDX-License-Identifier: MIT\npragma solidity >=0.4.22 <0.9.0;\n\nimport \"@openzeppelin/contracts/token/ERC20/ERC20.sol\";\nimport \"@openzeppelin/contracts/access/Ownable.sol\";\nimport {SafeMath} from \"@openzeppelin/contracts/utils/math/SafeMath.sol\";\nimport {IKyc} from \"./interface/IKyc.sol\";\n\ncontract ERC20Mock is ERC20, Ownable {\n    using SafeMath for uint256;\n\n    IKyc public kycContract;\n    struct Transactions {\n        address walletAddress;\n        uint256 amount;\n        uint256 timestamp; \n    }\n\n    mapping (address => Transactions) public usersTransaction;\n\n    constructor (\n        string memory name,\n        string memory symbol,\n        address kyc\n    ) payable ERC20(name, symbol) {\n        kycContract = IKyc(kyc);\n        mint(msg.sender, 100 ether);\n    }\n    \n    // ================ Admin Functionality ==========================\n    function mint(address account, uint256 amount) public onlyOwner {\n        _mint(account, amount);\n    }\n    \n    function burn(address account, uint256 amount) public onlyOwner{ \n        _burn(account, amount);\n    }\n\n    function setKycContract(address kyc) public onlyOwner {\n        kycContract = IKyc(kyc);\n    }\n    // ================ User Functionality ==========================\n\n    function amountTransferable(uint256 teir, address from, address to, uint256 amount) public view returns (uint256){\n        require(teir > 0, \"No teir for the user\");\n\n        if (teir == 1 && amount > 1000 ether)\n            revert(\"Above Limit of teir 1\");\n\n        if (teir == 2 && amount > 2000 ether)\n            revert(\"Above Limit of teir 2\");\n\n        if (teir == 3 && amount > 3000 ether)\n            revert(\"Above Limit of teir 3\");\n\n        Transactions memory transactions = usersTransaction[from];\n\n        if(teir == 1) {\n            if(block.timestamp - transactions.timestamp > 1 days){\n                return 1000 ether;\n            } else {\n                return (1000 ether) - transactions.amount;\n            }\n        }\n\n        if(teir == 2) {\n            if(block.timestamp - transactions.timestamp > 1 days){\n                return 2000 ether;\n            } else {\n                return (2000 ether) - transactions.amount;\n            }\n        }\n\n        if(teir == 3) {\n            if(block.timestamp - transactions.timestamp > 1 days){\n                return 3000 ether;\n            } else {\n                return (3000 ether) - transactions.amount;\n            }\n        }\n    }\n\n    function _transfer(address from, address to, uint256 amount) internal override{\n        require(from != address(0), \"ERC20: transfer from the zero address\");\n        require(to != address(0), \"ERC20: transfer to the zero address\");\n\n        _beforeTokenTransfer(from, to, amount);\n        Transactions memory transactions = usersTransaction[from];\n\n        if(transactions.walletAddress == from){\n            (bool approval, uint256 teir) = kycContract.isAllowed(from);\n            if (approval) {\n                uint256 amountSpendable = amountTransferable(teir, from, to, amount);\n\n                if (amountSpendable >= amount) {\n                    super._transfer(from, to, amount);\n                } else {\n                    revert(\"Transaction limit reached for user\");\n                }\n\n                transactions.amount = transactions.amount + amount;\n                transactions.timestamp = block.timestamp;\n                usersTransaction[from] = transactions;\n            } else {\n                revert(\"Not Known User\");\n            }\n        } else {\n            (bool approval, uint256 teir) = kycContract.isAllowed(from);\n            if (approval) {\n                uint256 amountSpendable = amountTransferable(teir, from, to, amount);\n\n                if (amountSpendable >= amount) {\n                    super._transfer(from, to, amount);\n                } else {\n                    revert(\"Transaction limit reached for user\");\n                }\n\n                usersTransaction[from] = Transactions(\n                    from,\n                    amount,\n                    block.timestamp\n                );\n            } else {\n                revert(\"Not Known User\");\n            }\n        }\n    }\n\n    function approveInternal(address owner, address spender, uint256 value) public {\n        _approve(owner, spender, value);\n    }\n\n    // ========================= Test Function Have To Be Removed Later ===================\n    function checkStatus(address from) public view returns (bool, uint256){\n        (bool approval, uint256 teir) = kycContract.isAllowed(from);\n\n        return (approval, teir);\n    }\n}",
  "sourcePath": "/Users/sagarbehara/Work/Kyc-token/contracts/token.sol",
  "compiler": {
    "name": "solc",
    "version": "0.8.0+commit.c7dfd78e.Emscripten.clang"
  },
  "schemaVersion": "3.4.1",
  "updatedAt": "2022-06-30T13:21:02.063Z",
  "networkType": "ethereum",
  "devdoc": {
    "kind": "dev",
    "methods": {
      "allowance(address,address)": {
        "details": "See {IERC20-allowance}."
      },
      "approve(address,uint256)": {
        "details": "See {IERC20-approve}. NOTE: If `amount` is the maximum `uint256`, the allowance is not updated on `transferFrom`. This is semantically equivalent to an infinite approval. Requirements: - `spender` cannot be the zero address."
      },
      "balanceOf(address)": {
        "details": "See {IERC20-balanceOf}."
      },
      "decimals()": {
        "details": "Returns the number of decimals used to get its user representation. For example, if `decimals` equals `2`, a balance of `505` tokens should be displayed to a user as `5.05` (`505 / 10 ** 2`). Tokens usually opt for a value of 18, imitating the relationship between Ether and Wei. This is the value {ERC20} uses, unless this function is overridden; NOTE: This information is only used for _display_ purposes: it in no way affects any of the arithmetic of the contract, including {IERC20-balanceOf} and {IERC20-transfer}."
      },
      "decreaseAllowance(address,uint256)": {
        "details": "Atomically decreases the allowance granted to `spender` by the caller. This is an alternative to {approve} that can be used as a mitigation for problems described in {IERC20-approve}. Emits an {Approval} event indicating the updated allowance. Requirements: - `spender` cannot be the zero address. - `spender` must have allowance for the caller of at least `subtractedValue`."
      },
      "increaseAllowance(address,uint256)": {
        "details": "Atomically increases the allowance granted to `spender` by the caller. This is an alternative to {approve} that can be used as a mitigation for problems described in {IERC20-approve}. Emits an {Approval} event indicating the updated allowance. Requirements: - `spender` cannot be the zero address."
      },
      "name()": {
        "details": "Returns the name of the token."
      },
      "owner()": {
        "details": "Returns the address of the current owner."
      },
      "renounceOwnership()": {
        "details": "Leaves the contract without owner. It will not be possible to call `onlyOwner` functions anymore. Can only be called by the current owner. NOTE: Renouncing ownership will leave the contract without an owner, thereby removing any functionality that is only available to the owner."
      },
      "symbol()": {
        "details": "Returns the symbol of the token, usually a shorter version of the name."
      },
      "totalSupply()": {
        "details": "See {IERC20-totalSupply}."
      },
      "transfer(address,uint256)": {
        "details": "See {IERC20-transfer}. Requirements: - `to` cannot be the zero address. - the caller must have a balance of at least `amount`."
      },
      "transferFrom(address,address,uint256)": {
        "details": "See {IERC20-transferFrom}. Emits an {Approval} event indicating the updated allowance. This is not required by the EIP. See the note at the beginning of {ERC20}. NOTE: Does not update the allowance if the current allowance is the maximum `uint256`. Requirements: - `from` and `to` cannot be the zero address. - `from` must have a balance of at least `amount`. - the caller must have allowance for ``from``'s tokens of at least `amount`."
      },
      "transferOwnership(address)": {
        "details": "Transfers ownership of the contract to a new account (`newOwner`). Can only be called by the current owner."
      }
    },
    "version": 1
  },
  "userdoc": {
    "kind": "user",
    "methods": {},
    "version": 1
  }
}