{
  "contractName": "KycContract",
  "abi": [
    {
      "anonymous": false,
      "inputs": [
        {
          "indexed": true,
          "internalType": "address",
          "name": "previousOwner",
          "type": "address"
        },
        {
          "indexed": true,
          "internalType": "address",
          "name": "newOwner",
          "type": "address"
        }
      ],
      "name": "OwnershipTransferred",
      "type": "event"
    },
    {
      "inputs": [
        {
          "internalType": "address",
          "name": "",
          "type": "address"
        }
      ],
      "name": "allowed",
      "outputs": [
        {
          "internalType": "enum KycContract.Status",
          "name": "status",
          "type": "uint8"
        },
        {
          "internalType": "bool",
          "name": "approval",
          "type": "bool"
        },
        {
          "internalType": "uint256",
          "name": "teir",
          "type": "uint256"
        }
      ],
      "stateMutability": "view",
      "type": "function",
      "constant": true
    },
    {
      "inputs": [],
      "name": "kycApprovedUser",
      "outputs": [
        {
          "internalType": "uint256",
          "name": "",
          "type": "uint256"
        }
      ],
      "stateMutability": "view",
      "type": "function",
      "constant": true
    },
    {
      "inputs": [],
      "name": "owner",
      "outputs": [
        {
          "internalType": "address",
          "name": "",
          "type": "address"
        }
      ],
      "stateMutability": "view",
      "type": "function",
      "constant": true
    },
    {
      "inputs": [],
      "name": "renounceOwnership",
      "outputs": [],
      "stateMutability": "nonpayable",
      "type": "function"
    },
    {
      "inputs": [
        {
          "internalType": "address",
          "name": "newOwner",
          "type": "address"
        }
      ],
      "name": "transferOwnership",
      "outputs": [],
      "stateMutability": "nonpayable",
      "type": "function"
    },
    {
      "inputs": [
        {
          "internalType": "address",
          "name": "",
          "type": "address"
        }
      ],
      "name": "userDetails",
      "outputs": [
        {
          "internalType": "address",
          "name": "walletAddress",
          "type": "address"
        },
        {
          "internalType": "string",
          "name": "name",
          "type": "string"
        },
        {
          "internalType": "string",
          "name": "dob",
          "type": "string"
        },
        {
          "internalType": "string",
          "name": "kycRegisterationId",
          "type": "string"
        },
        {
          "internalType": "bool",
          "name": "updation",
          "type": "bool"
        }
      ],
      "stateMutability": "view",
      "type": "function",
      "constant": true
    },
    {
      "inputs": [
        {
          "internalType": "address",
          "name": "user",
          "type": "address"
        },
        {
          "internalType": "uint256",
          "name": "teir",
          "type": "uint256"
        }
      ],
      "name": "setKYCComleted",
      "outputs": [],
      "stateMutability": "nonpayable",
      "type": "function"
    },
    {
      "inputs": [
        {
          "internalType": "address",
          "name": "user",
          "type": "address"
        },
        {
          "internalType": "uint256",
          "name": "teir",
          "type": "uint256"
        }
      ],
      "name": "updateKycTeir",
      "outputs": [],
      "stateMutability": "nonpayable",
      "type": "function"
    },
    {
      "inputs": [
        {
          "internalType": "address",
          "name": "user",
          "type": "address"
        }
      ],
      "name": "setKYCRevoked",
      "outputs": [],
      "stateMutability": "nonpayable",
      "type": "function"
    },
    {
      "inputs": [
        {
          "internalType": "address",
          "name": "user",
          "type": "address"
        }
      ],
      "name": "isAllowed",
      "outputs": [
        {
          "internalType": "bool",
          "name": "",
          "type": "bool"
        },
        {
          "internalType": "uint256",
          "name": "",
          "type": "uint256"
        }
      ],
      "stateMutability": "view",
      "type": "function",
      "constant": true
    },
    {
      "inputs": [
        {
          "internalType": "address",
          "name": "walletAddress",
          "type": "address"
        },
        {
          "internalType": "string",
          "name": "name",
          "type": "string"
        },
        {
          "internalType": "string",
          "name": "dob",
          "type": "string"
        },
        {
          "internalType": "string",
          "name": "kycRegisterationId",
          "type": "string"
        }
      ],
      "name": "uploadKycDocuments",
      "outputs": [],
      "stateMutability": "nonpayable",
      "type": "function"
    }
  ],
  "bytecode": "0x608060405234801561001057600080fd5b5061002d61002261003260201b60201c565b61003a60201b60201c565b6100fe565b600033905090565b60008060009054906101000a900473ffffffffffffffffffffffffffffffffffffffff169050816000806101000a81548173ffffffffffffffffffffffffffffffffffffffff021916908373ffffffffffffffffffffffffffffffffffffffff1602179055508173ffffffffffffffffffffffffffffffffffffffff168173ffffffffffffffffffffffffffffffffffffffff167f8be0079c531659141344cd1fd0a4f28419497f9722a3daafe3b4186f6b6457e060405160405180910390a35050565b611c268061010d6000396000f3fe608060405234801561001057600080fd5b50600436106100a95760003560e01c80638da5cb5b116100715780638da5cb5b14610140578063babcc5391461015e578063d63a8e111461018f578063e057135f146101c1578063efc27359146101dd578063f2fde38b146101fb576100a9565b8063215b1638146100ae57806348dec2a7146100ca578063715018a6146100fe5780638191ce56146101085780638b78447314610124575b600080fd5b6100c860048036038101906100c391906114d0565b610217565b005b6100e460048036038101906100df91906114d0565b610452565b6040516100f5959493929190611796565b60405180910390f35b61010661064d565b005b610122600480360381019061011d91906115a4565b6106d5565b005b61013e600480360381019061013991906115a4565b61091d565b005b610148610b5a565b604051610155919061177b565b60405180910390f35b610178600480360381019061017391906114d0565b610b83565b6040516101869291906117fe565b60405180910390f35b6101a960048036038101906101a491906114d0565b610c22565b6040516101b893929190611827565b60405180910390f35b6101db60048036038101906101d691906114f9565b610c66565b005b6101e56111d1565b6040516101f291906118de565b60405180910390f35b610215600480360381019061021091906114d0565b6111d7565b005b61021f6112cf565b73ffffffffffffffffffffffffffffffffffffffff1661023d610b5a565b73ffffffffffffffffffffffffffffffffffffffff1614610293576040517f08c379a000000000000000000000000000000000000000000000000000000000815260040161028a906118be565b60405180910390fd5b600260008273ffffffffffffffffffffffffffffffffffffffff1673ffffffffffffffffffffffffffffffffffffffff16815260200190815260200160002060000160019054906101000a900460ff16610322576040517f08c379a00000000000000000000000000000000000000000000000000000000081526004016103199061187e565b60405180910390fd5b6001805461033091906119cc565b600181905550604051806060016040528060038081111561037a577f4e487b7100000000000000000000000000000000000000000000000000000000600052602160045260246000fd5b81526020016000151581526020016000815250600260008373ffffffffffffffffffffffffffffffffffffffff1673ffffffffffffffffffffffffffffffffffffffff16815260200190815260200160002060008201518160000160006101000a81548160ff0219169083600381111561041d577f4e487b7100000000000000000000000000000000000000000000000000000000600052602160045260246000fd5b021790555060208201518160000160016101000a81548160ff0219169083151502179055506040820151816001015590505050565b60036020528060005260406000206000915090508060000160009054906101000a900473ffffffffffffffffffffffffffffffffffffffff169080600101805461049b90611aaf565b80601f01602080910402602001604051908101604052809291908181526020018280546104c790611aaf565b80156105145780601f106104e957610100808354040283529160200191610514565b820191906000526020600020905b8154815290600101906020018083116104f757829003601f168201915b50505050509080600201805461052990611aaf565b80601f016020809104026020016040519081016040528092919081815260200182805461055590611aaf565b80156105a25780601f10610577576101008083540402835291602001916105a2565b820191906000526020600020905b81548152906001019060200180831161058557829003601f168201915b5050505050908060030180546105b790611aaf565b80601f01602080910402602001604051908101604052809291908181526020018280546105e390611aaf565b80156106305780601f1061060557610100808354040283529160200191610630565b820191906000526020600020905b81548152906001019060200180831161061357829003601f168201915b5050505050908060040160009054906101000a900460ff16905085565b6106556112cf565b73ffffffffffffffffffffffffffffffffffffffff16610673610b5a565b73ffffffffffffffffffffffffffffffffffffffff16146106c9576040517f08c379a00000000000000000000000000000000000000000000000000000000081526004016106c0906118be565b60405180910390fd5b6106d360006112d7565b565b6106dd6112cf565b73ffffffffffffffffffffffffffffffffffffffff166106fb610b5a565b73ffffffffffffffffffffffffffffffffffffffff1614610751576040517f08c379a0000000000000000000000000000000000000000000000000000000008152600401610748906118be565b60405180910390fd5b6000600260008473ffffffffffffffffffffffffffffffffffffffff1673ffffffffffffffffffffffffffffffffffffffff1681526020019081526020016000206040518060600160405290816000820160009054906101000a900460ff1660038111156107e8577f4e487b7100000000000000000000000000000000000000000000000000000000600052602160045260246000fd5b6003811115610820577f4e487b7100000000000000000000000000000000000000000000000000000000600052602160045260246000fd5b81526020016000820160019054906101000a900460ff1615151515815260200160018201548152505090508181604001818152505080600260008573ffffffffffffffffffffffffffffffffffffffff1673ffffffffffffffffffffffffffffffffffffffff16815260200190815260200160002060008201518160000160006101000a81548160ff021916908360038111156108e6577f4e487b7100000000000000000000000000000000000000000000000000000000600052602160045260246000fd5b021790555060208201518160000160016101000a81548160ff02191690831515021790555060408201518160010155905050505050565b6109256112cf565b73ffffffffffffffffffffffffffffffffffffffff16610943610b5a565b73ffffffffffffffffffffffffffffffffffffffff1614610999576040517f08c379a0000000000000000000000000000000000000000000000000000000008152600401610990906118be565b60405180910390fd5b600260008373ffffffffffffffffffffffffffffffffffffffff1673ffffffffffffffffffffffffffffffffffffffff16815260200190815260200160002060000160019054906101000a900460ff1615610a29576040517f08c379a0000000000000000000000000000000000000000000000000000000008152600401610a209061189e565b60405180910390fd5b60018054610a379190611976565b600181905550604051806060016040528060026003811115610a82577f4e487b7100000000000000000000000000000000000000000000000000000000600052602160045260246000fd5b815260200160011515815260200182815250600260008473ffffffffffffffffffffffffffffffffffffffff1673ffffffffffffffffffffffffffffffffffffffff16815260200190815260200160002060008201518160000160006101000a81548160ff02191690836003811115610b24577f4e487b7100000000000000000000000000000000000000000000000000000000600052602160045260246000fd5b021790555060208201518160000160016101000a81548160ff021916908315150217905550604082015181600101559050505050565b60008060009054906101000a900473ffffffffffffffffffffffffffffffffffffffff16905090565b600080600260008473ffffffffffffffffffffffffffffffffffffffff1673ffffffffffffffffffffffffffffffffffffffff16815260200190815260200160002060000160019054906101000a900460ff16600260008573ffffffffffffffffffffffffffffffffffffffff1673ffffffffffffffffffffffffffffffffffffffff1681526020019081526020016000206001015491509150915091565b60026020528060005260406000206000915090508060000160009054906101000a900460ff16908060000160019054906101000a900460ff16908060010154905083565b600360003373ffffffffffffffffffffffffffffffffffffffff1673ffffffffffffffffffffffffffffffffffffffff16815260200190815260200160002060040160009054906101000a900460ff161561108a576000600360003373ffffffffffffffffffffffffffffffffffffffff1673ffffffffffffffffffffffffffffffffffffffff1681526020019081526020016000206040518060a00160405290816000820160009054906101000a900473ffffffffffffffffffffffffffffffffffffffff1673ffffffffffffffffffffffffffffffffffffffff1673ffffffffffffffffffffffffffffffffffffffff168152602001600182018054610d6d90611aaf565b80601f0160208091040260200160405190810160405280929190818152602001828054610d9990611aaf565b8015610de65780601f10610dbb57610100808354040283529160200191610de6565b820191906000526020600020905b815481529060010190602001808311610dc957829003601f168201915b50505050508152602001600282018054610dff90611aaf565b80601f0160208091040260200160405190810160405280929190818152602001828054610e2b90611aaf565b8015610e785780601f10610e4d57610100808354040283529160200191610e78565b820191906000526020600020905b815481529060010190602001808311610e5b57829003601f168201915b50505050508152602001600382018054610e9190611aaf565b80601f0160208091040260200160405190810160405280929190818152602001828054610ebd90611aaf565b8015610f0a5780601f10610edf57610100808354040283529160200191610f0a565b820191906000526020600020905b815481529060010190602001808311610eed57829003601f168201915b505050505081526020016004820160009054906101000a900460ff161515151581525050905083816020018190525082816040018190525081816060018190525084816000019073ffffffffffffffffffffffffffffffffffffffff16908173ffffffffffffffffffffffffffffffffffffffff168152505080600360003373ffffffffffffffffffffffffffffffffffffffff1673ffffffffffffffffffffffffffffffffffffffff16815260200190815260200160002060008201518160000160006101000a81548173ffffffffffffffffffffffffffffffffffffffff021916908373ffffffffffffffffffffffffffffffffffffffff160217905550602082015181600101908051906020019061102692919061139b565b50604082015181600201908051906020019061104392919061139b565b50606082015181600301908051906020019061106092919061139b565b5060808201518160040160006101000a81548160ff021916908315150217905550905050506111cb565b6040518060a001604052808573ffffffffffffffffffffffffffffffffffffffff16815260200184815260200183815260200182815260200160011515815250600360003373ffffffffffffffffffffffffffffffffffffffff1673ffffffffffffffffffffffffffffffffffffffff16815260200190815260200160002060008201518160000160006101000a81548173ffffffffffffffffffffffffffffffffffffffff021916908373ffffffffffffffffffffffffffffffffffffffff160217905550602082015181600101908051906020019061116c92919061139b565b50604082015181600201908051906020019061118992919061139b565b5060608201518160030190805190602001906111a692919061139b565b5060808201518160040160006101000a81548160ff0219169083151502179055509050505b50505050565b60015481565b6111df6112cf565b73ffffffffffffffffffffffffffffffffffffffff166111fd610b5a565b73ffffffffffffffffffffffffffffffffffffffff1614611253576040517f08c379a000000000000000000000000000000000000000000000000000000000815260040161124a906118be565b60405180910390fd5b600073ffffffffffffffffffffffffffffffffffffffff168173ffffffffffffffffffffffffffffffffffffffff1614156112c3576040517f08c379a00000000000000000000000000000000000000000000000000000000081526004016112ba9061185e565b60405180910390fd5b6112cc816112d7565b50565b600033905090565b60008060009054906101000a900473ffffffffffffffffffffffffffffffffffffffff169050816000806101000a81548173ffffffffffffffffffffffffffffffffffffffff021916908373ffffffffffffffffffffffffffffffffffffffff1602179055508173ffffffffffffffffffffffffffffffffffffffff168173ffffffffffffffffffffffffffffffffffffffff167f8be0079c531659141344cd1fd0a4f28419497f9722a3daafe3b4186f6b6457e060405160405180910390a35050565b8280546113a790611aaf565b90600052602060002090601f0160209004810192826113c95760008555611410565b82601f106113e257805160ff1916838001178555611410565b82800160010185558215611410579182015b8281111561140f5782518255916020019190600101906113f4565b5b50905061141d9190611421565b5090565b5b8082111561143a576000816000905550600101611422565b5090565b600061145161144c8461192a565b6118f9565b90508281526020810184848401111561146957600080fd5b611474848285611a6d565b509392505050565b60008135905061148b81611bc2565b92915050565b600082601f8301126114a257600080fd5b81356114b284826020860161143e565b91505092915050565b6000813590506114ca81611bd9565b92915050565b6000602082840312156114e257600080fd5b60006114f08482850161147c565b91505092915050565b6000806000806080858703121561150f57600080fd5b600061151d8782880161147c565b945050602085013567ffffffffffffffff81111561153a57600080fd5b61154687828801611491565b935050604085013567ffffffffffffffff81111561156357600080fd5b61156f87828801611491565b925050606085013567ffffffffffffffff81111561158c57600080fd5b61159887828801611491565b91505092959194509250565b600080604083850312156115b757600080fd5b60006115c58582860161147c565b92505060206115d6858286016114bb565b9150509250929050565b6115e981611a00565b82525050565b6115f881611a12565b82525050565b61160781611a5b565b82525050565b60006116188261195a565b6116228185611965565b9350611632818560208601611a7c565b61163b81611b9d565b840191505092915050565b6000611653602683611965565b91507f4f776e61626c653a206e6577206f776e657220697320746865207a65726f206160008301527f64647265737300000000000000000000000000000000000000000000000000006020830152604082019050919050565b60006116b9601583611965565b91507f55736572206e6f742079657420617070726f76656400000000000000000000006000830152602082019050919050565b60006116f9601583611965565b91507f5573657220616c726561647920617070726f76656400000000000000000000006000830152602082019050919050565b6000611739602083611965565b91507f4f776e61626c653a2063616c6c6572206973206e6f7420746865206f776e65726000830152602082019050919050565b61177581611a51565b82525050565b600060208201905061179060008301846115e0565b92915050565b600060a0820190506117ab60008301886115e0565b81810360208301526117bd818761160d565b905081810360408301526117d1818661160d565b905081810360608301526117e5818561160d565b90506117f460808301846115ef565b9695505050505050565b600060408201905061181360008301856115ef565b611820602083018461176c565b9392505050565b600060608201905061183c60008301866115fe565b61184960208301856115ef565b611856604083018461176c565b949350505050565b6000602082019050818103600083015261187781611646565b9050919050565b60006020820190508181036000830152611897816116ac565b9050919050565b600060208201905081810360008301526118b7816116ec565b9050919050565b600060208201905081810360008301526118d78161172c565b9050919050565b60006020820190506118f3600083018461176c565b92915050565b6000604051905081810181811067ffffffffffffffff821117156119205761191f611b6e565b5b8060405250919050565b600067ffffffffffffffff82111561194557611944611b6e565b5b601f19601f8301169050602081019050919050565b600081519050919050565b600082825260208201905092915050565b600061198182611a51565b915061198c83611a51565b9250827fffffffffffffffffffffffffffffffffffffffffffffffffffffffffffffffff038211156119c1576119c0611ae1565b5b828201905092915050565b60006119d782611a51565b91506119e283611a51565b9250828210156119f5576119f4611ae1565b5b828203905092915050565b6000611a0b82611a31565b9050919050565b60008115159050919050565b6000819050611a2c82611bae565b919050565b600073ffffffffffffffffffffffffffffffffffffffff82169050919050565b6000819050919050565b6000611a6682611a1e565b9050919050565b82818337600083830152505050565b60005b83811015611a9a578082015181840152602081019050611a7f565b83811115611aa9576000848401525b50505050565b60006002820490506001821680611ac757607f821691505b60208210811415611adb57611ada611b3f565b5b50919050565b7f4e487b7100000000000000000000000000000000000000000000000000000000600052601160045260246000fd5b7f4e487b7100000000000000000000000000000000000000000000000000000000600052602160045260246000fd5b7f4e487b7100000000000000000000000000000000000000000000000000000000600052602260045260246000fd5b7f4e487b7100000000000000000000000000000000000000000000000000000000600052604160045260246000fd5b6000601f19601f8301169050919050565b60048110611bbf57611bbe611b10565b5b50565b611bcb81611a00565b8114611bd657600080fd5b50565b611be281611a51565b8114611bed57600080fd5b5056fea2646970667358221220257113b0670bf409033e44730f05113f049622b94b814cf7ecb7d115385a5a8d64736f6c63430008000033",
  "immutableReferences": {},
  "source": "// SPDX-License-Identifier: MIT\npragma solidity >=0.4.22 <0.9.0;\n\nimport \"@openzeppelin/contracts/access/Ownable.sol\";\n\ncontract KycContract is Ownable {\n    uint256 public kycApprovedUser;\n    \n    enum Status { pending, inprogress, approved, rejected }\n\n    struct KYC {\n        Status status;\n        bool approval;\n        uint256 teir;\n    }\n\n    struct UserInfo {\n        address walletAddress;\n        string name;\n        string dob;\n        string kycRegisterationId;\n        bool updation;\n        //string ibanNumer;\n    }\n\n    mapping( address => KYC ) public allowed;\n    mapping( address => UserInfo ) public userDetails;\n\n    // ============= Admin Functionalities  =========================\n    function setKYCComleted(address user, uint256 teir) public onlyOwner {\n        require(!allowed[user].approval, \"User already approved\");\n\n        kycApprovedUser = kycApprovedUser + 1; \n        allowed[user] = KYC(Status.approved, true, teir);\n    }\n\n    function updateKycTeir(address user, uint256 teir) public onlyOwner {\n        KYC memory kyc = allowed[user];\n        kyc.teir = teir;\n        allowed[user] = kyc;\n    }\n\n    function setKYCRevoked(address user) public onlyOwner {\n        require(allowed[user].approval, \"User not yet approved\");\n\n        kycApprovedUser = kycApprovedUser - 1;\n        allowed[user] = KYC(Status.rejected, false, 0);\n    }\n\n    // ============= User Functionalists ==============================\n\n    function isAllowed(address user) public view returns (bool, uint256) {\n        return (allowed[user].approval, allowed[user].teir);\n    }\n\n    function uploadKycDocuments(\n        address walletAddress,\n        string memory name,\n        string memory dob,\n        string memory kycRegisterationId\n    ) public {\n        if(userDetails[msg.sender].updation) {\n            UserInfo memory userInfo = userDetails[msg.sender];\n            \n            userInfo.name = name;\n            userInfo.dob = dob;\n            userInfo.kycRegisterationId = kycRegisterationId;\n            userInfo.walletAddress = walletAddress;\n\n            userDetails[msg.sender] = userInfo;\n        } else {\n            userDetails[msg.sender] = UserInfo(\n                walletAddress,\n                name,\n                dob,\n                kycRegisterationId,\n                true\n            );\n        }\n    }\n}",
  "sourcePath": "/Users/sagarbehara/Work/Kyc-token/contracts/Kyc.sol",
  "compiler": {
    "name": "solc",
    "version": "0.8.0+commit.c7dfd78e.Emscripten.clang"
  },
  "schemaVersion": "3.4.1",
  "updatedAt": "2022-06-28T09:58:53.864Z",
  "networkType": "ethereum",
  "devdoc": {
    "kind": "dev",
    "methods": {
      "owner()": {
        "details": "Returns the address of the current owner."
      },
      "renounceOwnership()": {
        "details": "Leaves the contract without owner. It will not be possible to call `onlyOwner` functions anymore. Can only be called by the current owner. NOTE: Renouncing ownership will leave the contract without an owner, thereby removing any functionality that is only available to the owner."
      },
      "transferOwnership(address)": {
        "details": "Transfers ownership of the contract to a new account (`newOwner`). Can only be called by the current owner."
      }
    },
    "version": 1
  },
  "userdoc": {
    "kind": "user",
    "methods": {},
    "version": 1
  }
}