{
  "contractName": "KycContract",
  "abi": [
    {
      "anonymous": false,
      "inputs": [
        {
          "indexed": true,
          "internalType": "address",
          "name": "previousOwner",
          "type": "address"
        },
        {
          "indexed": true,
          "internalType": "address",
          "name": "newOwner",
          "type": "address"
        }
      ],
      "name": "OwnershipTransferred",
      "type": "event"
    },
    {
      "inputs": [
        {
          "internalType": "address",
          "name": "",
          "type": "address"
        }
      ],
      "name": "allowed",
      "outputs": [
        {
          "internalType": "enum KycContract.Status",
          "name": "status",
          "type": "uint8"
        },
        {
          "internalType": "bool",
          "name": "approval",
          "type": "bool"
        },
        {
          "internalType": "uint256",
          "name": "teir",
          "type": "uint256"
        }
      ],
      "stateMutability": "view",
      "type": "function"
    },
    {
      "inputs": [],
      "name": "kycApprovedUser",
      "outputs": [
        {
          "internalType": "uint256",
          "name": "",
          "type": "uint256"
        }
      ],
      "stateMutability": "view",
      "type": "function"
    },
    {
      "inputs": [],
      "name": "owner",
      "outputs": [
        {
          "internalType": "address",
          "name": "",
          "type": "address"
        }
      ],
      "stateMutability": "view",
      "type": "function"
    },
    {
      "inputs": [],
      "name": "renounceOwnership",
      "outputs": [],
      "stateMutability": "nonpayable",
      "type": "function"
    },
    {
      "inputs": [
        {
          "internalType": "address",
          "name": "newOwner",
          "type": "address"
        }
      ],
      "name": "transferOwnership",
      "outputs": [],
      "stateMutability": "nonpayable",
      "type": "function"
    },
    {
      "inputs": [
        {
          "internalType": "address",
          "name": "",
          "type": "address"
        }
      ],
      "name": "userDetails",
      "outputs": [
        {
          "internalType": "address",
          "name": "walletAddress",
          "type": "address"
        },
        {
          "internalType": "string",
          "name": "name",
          "type": "string"
        },
        {
          "internalType": "string",
          "name": "residentialAddress",
          "type": "string"
        },
        {
          "internalType": "string",
          "name": "kycRegisterationId",
          "type": "string"
        },
        {
          "internalType": "bool",
          "name": "updation",
          "type": "bool"
        }
      ],
      "stateMutability": "view",
      "type": "function"
    },
    {
      "inputs": [
        {
          "internalType": "address",
          "name": "user",
          "type": "address"
        },
        {
          "internalType": "uint256",
          "name": "teir",
          "type": "uint256"
        }
      ],
      "name": "setKYCComleted",
      "outputs": [],
      "stateMutability": "nonpayable",
      "type": "function"
    },
    {
      "inputs": [
        {
          "internalType": "address",
          "name": "user",
          "type": "address"
        },
        {
          "internalType": "uint256",
          "name": "teir",
          "type": "uint256"
        }
      ],
      "name": "updateKycTeir",
      "outputs": [],
      "stateMutability": "nonpayable",
      "type": "function"
    },
    {
      "inputs": [
        {
          "internalType": "address",
          "name": "user",
          "type": "address"
        }
      ],
      "name": "setKYCRevoked",
      "outputs": [],
      "stateMutability": "nonpayable",
      "type": "function"
    },
    {
      "inputs": [
        {
          "internalType": "address",
          "name": "user",
          "type": "address"
        }
      ],
      "name": "isAllowed",
      "outputs": [
        {
          "internalType": "bool",
          "name": "",
          "type": "bool"
        },
        {
          "internalType": "uint256",
          "name": "",
          "type": "uint256"
        }
      ],
      "stateMutability": "view",
      "type": "function"
    },
    {
      "inputs": [
        {
          "internalType": "string",
          "name": "name",
          "type": "string"
        },
        {
          "internalType": "string",
          "name": "residentialAddress",
          "type": "string"
        },
        {
          "internalType": "string",
          "name": "kycRegisterationId",
          "type": "string"
        }
      ],
      "name": "uploadKycDocuments",
      "outputs": [],
      "stateMutability": "nonpayable",
      "type": "function"
    }
  ],
  "bytecode": "0x608060405234801561001057600080fd5b5061002d61002261003260201b60201c565b61003a60201b60201c565b6100fe565b600033905090565b60008060009054906101000a900473ffffffffffffffffffffffffffffffffffffffff169050816000806101000a81548173ffffffffffffffffffffffffffffffffffffffff021916908373ffffffffffffffffffffffffffffffffffffffff1602179055508173ffffffffffffffffffffffffffffffffffffffff168173ffffffffffffffffffffffffffffffffffffffff167f8be0079c531659141344cd1fd0a4f28419497f9722a3daafe3b4186f6b6457e060405160405180910390a35050565b611bd98061010d6000396000f3fe608060405234801561001057600080fd5b50600436106100a95760003560e01c80638da5cb5b116100715780638da5cb5b14610140578063babcc5391461015e578063d09ddfb91461018f578063d63a8e11146101ab578063efc27359146101dd578063f2fde38b146101fb576100a9565b8063215b1638146100ae57806348dec2a7146100ca578063715018a6146100fe5780638191ce56146101085780638b78447314610124575b600080fd5b6100c860048036038101906100c39190611497565b610217565b005b6100e460048036038101906100df9190611497565b610452565b6040516100f5959493929190611749565b60405180910390f35b61010661064d565b005b610122600480360381019061011d91906114c0565b6106d5565b005b61013e600480360381019061013991906114c0565b61091d565b005b610148610b5a565b604051610155919061172e565b60405180910390f35b61017860048036038101906101739190611497565b610b83565b6040516101869291906117b1565b60405180910390f35b6101a960048036038101906101a491906114fc565b610c22565b005b6101c560048036038101906101c09190611497565b611154565b6040516101d4939291906117da565b60405180910390f35b6101e5611198565b6040516101f29190611891565b60405180910390f35b61021560048036038101906102109190611497565b61119e565b005b61021f611296565b73ffffffffffffffffffffffffffffffffffffffff1661023d610b5a565b73ffffffffffffffffffffffffffffffffffffffff1614610293576040517f08c379a000000000000000000000000000000000000000000000000000000000815260040161028a90611871565b60405180910390fd5b600260008273ffffffffffffffffffffffffffffffffffffffff1673ffffffffffffffffffffffffffffffffffffffff16815260200190815260200160002060000160019054906101000a900460ff16610322576040517f08c379a000000000000000000000000000000000000000000000000000000000815260040161031990611831565b60405180910390fd5b60018054610330919061197f565b600181905550604051806060016040528060038081111561037a577f4e487b7100000000000000000000000000000000000000000000000000000000600052602160045260246000fd5b81526020016000151581526020016000815250600260008373ffffffffffffffffffffffffffffffffffffffff1673ffffffffffffffffffffffffffffffffffffffff16815260200190815260200160002060008201518160000160006101000a81548160ff0219169083600381111561041d577f4e487b7100000000000000000000000000000000000000000000000000000000600052602160045260246000fd5b021790555060208201518160000160016101000a81548160ff0219169083151502179055506040820151816001015590505050565b60036020528060005260406000206000915090508060000160009054906101000a900473ffffffffffffffffffffffffffffffffffffffff169080600101805461049b90611a62565b80601f01602080910402602001604051908101604052809291908181526020018280546104c790611a62565b80156105145780601f106104e957610100808354040283529160200191610514565b820191906000526020600020905b8154815290600101906020018083116104f757829003601f168201915b50505050509080600201805461052990611a62565b80601f016020809104026020016040519081016040528092919081815260200182805461055590611a62565b80156105a25780601f10610577576101008083540402835291602001916105a2565b820191906000526020600020905b81548152906001019060200180831161058557829003601f168201915b5050505050908060030180546105b790611a62565b80601f01602080910402602001604051908101604052809291908181526020018280546105e390611a62565b80156106305780601f1061060557610100808354040283529160200191610630565b820191906000526020600020905b81548152906001019060200180831161061357829003601f168201915b5050505050908060040160009054906101000a900460ff16905085565b610655611296565b73ffffffffffffffffffffffffffffffffffffffff16610673610b5a565b73ffffffffffffffffffffffffffffffffffffffff16146106c9576040517f08c379a00000000000000000000000000000000000000000000000000000000081526004016106c090611871565b60405180910390fd5b6106d3600061129e565b565b6106dd611296565b73ffffffffffffffffffffffffffffffffffffffff166106fb610b5a565b73ffffffffffffffffffffffffffffffffffffffff1614610751576040517f08c379a000000000000000000000000000000000000000000000000000000000815260040161074890611871565b60405180910390fd5b6000600260008473ffffffffffffffffffffffffffffffffffffffff1673ffffffffffffffffffffffffffffffffffffffff1681526020019081526020016000206040518060600160405290816000820160009054906101000a900460ff1660038111156107e8577f4e487b7100000000000000000000000000000000000000000000000000000000600052602160045260246000fd5b6003811115610820577f4e487b7100000000000000000000000000000000000000000000000000000000600052602160045260246000fd5b81526020016000820160019054906101000a900460ff1615151515815260200160018201548152505090508181604001818152505080600260008573ffffffffffffffffffffffffffffffffffffffff1673ffffffffffffffffffffffffffffffffffffffff16815260200190815260200160002060008201518160000160006101000a81548160ff021916908360038111156108e6577f4e487b7100000000000000000000000000000000000000000000000000000000600052602160045260246000fd5b021790555060208201518160000160016101000a81548160ff02191690831515021790555060408201518160010155905050505050565b610925611296565b73ffffffffffffffffffffffffffffffffffffffff16610943610b5a565b73ffffffffffffffffffffffffffffffffffffffff1614610999576040517f08c379a000000000000000000000000000000000000000000000000000000000815260040161099090611871565b60405180910390fd5b600260008373ffffffffffffffffffffffffffffffffffffffff1673ffffffffffffffffffffffffffffffffffffffff16815260200190815260200160002060000160019054906101000a900460ff1615610a29576040517f08c379a0000000000000000000000000000000000000000000000000000000008152600401610a2090611851565b60405180910390fd5b60018054610a379190611929565b600181905550604051806060016040528060026003811115610a82577f4e487b7100000000000000000000000000000000000000000000000000000000600052602160045260246000fd5b815260200160011515815260200182815250600260008473ffffffffffffffffffffffffffffffffffffffff1673ffffffffffffffffffffffffffffffffffffffff16815260200190815260200160002060008201518160000160006101000a81548160ff02191690836003811115610b24577f4e487b7100000000000000000000000000000000000000000000000000000000600052602160045260246000fd5b021790555060208201518160000160016101000a81548160ff021916908315150217905550604082015181600101559050505050565b60008060009054906101000a900473ffffffffffffffffffffffffffffffffffffffff16905090565b600080600260008473ffffffffffffffffffffffffffffffffffffffff1673ffffffffffffffffffffffffffffffffffffffff16815260200190815260200160002060000160019054906101000a900460ff16600260008573ffffffffffffffffffffffffffffffffffffffff1673ffffffffffffffffffffffffffffffffffffffff1681526020019081526020016000206001015491509150915091565b600360003373ffffffffffffffffffffffffffffffffffffffff1673ffffffffffffffffffffffffffffffffffffffff16815260200190815260200160002060040160009054906101000a900460ff161561100e576000600360003373ffffffffffffffffffffffffffffffffffffffff1673ffffffffffffffffffffffffffffffffffffffff1681526020019081526020016000206040518060a00160405290816000820160009054906101000a900473ffffffffffffffffffffffffffffffffffffffff1673ffffffffffffffffffffffffffffffffffffffff1673ffffffffffffffffffffffffffffffffffffffff168152602001600182018054610d2990611a62565b80601f0160208091040260200160405190810160405280929190818152602001828054610d5590611a62565b8015610da25780601f10610d7757610100808354040283529160200191610da2565b820191906000526020600020905b815481529060010190602001808311610d8557829003601f168201915b50505050508152602001600282018054610dbb90611a62565b80601f0160208091040260200160405190810160405280929190818152602001828054610de790611a62565b8015610e345780601f10610e0957610100808354040283529160200191610e34565b820191906000526020600020905b815481529060010190602001808311610e1757829003601f168201915b50505050508152602001600382018054610e4d90611a62565b80601f0160208091040260200160405190810160405280929190818152602001828054610e7990611a62565b8015610ec65780601f10610e9b57610100808354040283529160200191610ec6565b820191906000526020600020905b815481529060010190602001808311610ea957829003601f168201915b505050505081526020016004820160009054906101000a900460ff161515151581525050905083816020018190525082816040018190525081816060018190525080600360003373ffffffffffffffffffffffffffffffffffffffff1673ffffffffffffffffffffffffffffffffffffffff16815260200190815260200160002060008201518160000160006101000a81548173ffffffffffffffffffffffffffffffffffffffff021916908373ffffffffffffffffffffffffffffffffffffffff1602179055506020820151816001019080519060200190610faa929190611362565b506040820151816002019080519060200190610fc7929190611362565b506060820151816003019080519060200190610fe4929190611362565b5060808201518160040160006101000a81548160ff0219169083151502179055509050505061114f565b6040518060a001604052803373ffffffffffffffffffffffffffffffffffffffff16815260200184815260200183815260200182815260200160011515815250600360003373ffffffffffffffffffffffffffffffffffffffff1673ffffffffffffffffffffffffffffffffffffffff16815260200190815260200160002060008201518160000160006101000a81548173ffffffffffffffffffffffffffffffffffffffff021916908373ffffffffffffffffffffffffffffffffffffffff16021790555060208201518160010190805190602001906110f0929190611362565b50604082015181600201908051906020019061110d929190611362565b50606082015181600301908051906020019061112a929190611362565b5060808201518160040160006101000a81548160ff0219169083151502179055509050505b505050565b60026020528060005260406000206000915090508060000160009054906101000a900460ff16908060000160019054906101000a900460ff16908060010154905083565b60015481565b6111a6611296565b73ffffffffffffffffffffffffffffffffffffffff166111c4610b5a565b73ffffffffffffffffffffffffffffffffffffffff161461121a576040517f08c379a000000000000000000000000000000000000000000000000000000000815260040161121190611871565b60405180910390fd5b600073ffffffffffffffffffffffffffffffffffffffff168173ffffffffffffffffffffffffffffffffffffffff16141561128a576040517f08c379a000000000000000000000000000000000000000000000000000000000815260040161128190611811565b60405180910390fd5b6112938161129e565b50565b600033905090565b60008060009054906101000a900473ffffffffffffffffffffffffffffffffffffffff169050816000806101000a81548173ffffffffffffffffffffffffffffffffffffffff021916908373ffffffffffffffffffffffffffffffffffffffff1602179055508173ffffffffffffffffffffffffffffffffffffffff168173ffffffffffffffffffffffffffffffffffffffff167f8be0079c531659141344cd1fd0a4f28419497f9722a3daafe3b4186f6b6457e060405160405180910390a35050565b82805461136e90611a62565b90600052602060002090601f01602090048101928261139057600085556113d7565b82601f106113a957805160ff19168380011785556113d7565b828001600101855582156113d7579182015b828111156113d65782518255916020019190600101906113bb565b5b5090506113e491906113e8565b5090565b5b808211156114015760008160009055506001016113e9565b5090565b6000611418611413846118dd565b6118ac565b90508281526020810184848401111561143057600080fd5b61143b848285611a20565b509392505050565b60008135905061145281611b75565b92915050565b600082601f83011261146957600080fd5b8135611479848260208601611405565b91505092915050565b60008135905061149181611b8c565b92915050565b6000602082840312156114a957600080fd5b60006114b784828501611443565b91505092915050565b600080604083850312156114d357600080fd5b60006114e185828601611443565b92505060206114f285828601611482565b9150509250929050565b60008060006060848603121561151157600080fd5b600084013567ffffffffffffffff81111561152b57600080fd5b61153786828701611458565b935050602084013567ffffffffffffffff81111561155457600080fd5b61156086828701611458565b925050604084013567ffffffffffffffff81111561157d57600080fd5b61158986828701611458565b9150509250925092565b61159c816119b3565b82525050565b6115ab816119c5565b82525050565b6115ba81611a0e565b82525050565b60006115cb8261190d565b6115d58185611918565b93506115e5818560208601611a2f565b6115ee81611b50565b840191505092915050565b6000611606602683611918565b91507f4f776e61626c653a206e6577206f776e657220697320746865207a65726f206160008301527f64647265737300000000000000000000000000000000000000000000000000006020830152604082019050919050565b600061166c601583611918565b91507f55736572206e6f742079657420617070726f76656400000000000000000000006000830152602082019050919050565b60006116ac601583611918565b91507f5573657220616c726561647920617070726f76656400000000000000000000006000830152602082019050919050565b60006116ec602083611918565b91507f4f776e61626c653a2063616c6c6572206973206e6f7420746865206f776e65726000830152602082019050919050565b61172881611a04565b82525050565b60006020820190506117436000830184611593565b92915050565b600060a08201905061175e6000830188611593565b818103602083015261177081876115c0565b9050818103604083015261178481866115c0565b9050818103606083015261179881856115c0565b90506117a760808301846115a2565b9695505050505050565b60006040820190506117c660008301856115a2565b6117d3602083018461171f565b9392505050565b60006060820190506117ef60008301866115b1565b6117fc60208301856115a2565b611809604083018461171f565b949350505050565b6000602082019050818103600083015261182a816115f9565b9050919050565b6000602082019050818103600083015261184a8161165f565b9050919050565b6000602082019050818103600083015261186a8161169f565b9050919050565b6000602082019050818103600083015261188a816116df565b9050919050565b60006020820190506118a6600083018461171f565b92915050565b6000604051905081810181811067ffffffffffffffff821117156118d3576118d2611b21565b5b8060405250919050565b600067ffffffffffffffff8211156118f8576118f7611b21565b5b601f19601f8301169050602081019050919050565b600081519050919050565b600082825260208201905092915050565b600061193482611a04565b915061193f83611a04565b9250827fffffffffffffffffffffffffffffffffffffffffffffffffffffffffffffffff0382111561197457611973611a94565b5b828201905092915050565b600061198a82611a04565b915061199583611a04565b9250828210156119a8576119a7611a94565b5b828203905092915050565b60006119be826119e4565b9050919050565b60008115159050919050565b60008190506119df82611b61565b919050565b600073ffffffffffffffffffffffffffffffffffffffff82169050919050565b6000819050919050565b6000611a19826119d1565b9050919050565b82818337600083830152505050565b60005b83811015611a4d578082015181840152602081019050611a32565b83811115611a5c576000848401525b50505050565b60006002820490506001821680611a7a57607f821691505b60208210811415611a8e57611a8d611af2565b5b50919050565b7f4e487b7100000000000000000000000000000000000000000000000000000000600052601160045260246000fd5b7f4e487b7100000000000000000000000000000000000000000000000000000000600052602160045260246000fd5b7f4e487b7100000000000000000000000000000000000000000000000000000000600052602260045260246000fd5b7f4e487b7100000000000000000000000000000000000000000000000000000000600052604160045260246000fd5b6000601f19601f8301169050919050565b60048110611b7257611b71611ac3565b5b50565b611b7e816119b3565b8114611b8957600080fd5b50565b611b9581611a04565b8114611ba057600080fd5b5056fea2646970667358221220033aa23eb0a6b77c001f69bdc3da71d499a9eb17e7ae26eb5b20377a9a7b33a864736f6c63430008000033",
  "immutableReferences": {},
  "source": "// SPDX-License-Identifier: MIT\npragma solidity 0.8.0;\n\nimport \"@openzeppelin/contracts/access/Ownable.sol\";\n\ncontract KycContract is Ownable {\n    uint256 public kycApprovedUser;\n    \n    enum Status { pending, inprogress, approved, rejected }\n\n    struct KYC {\n        Status status;\n        bool approval;\n        uint256 teir;\n    }\n\n    struct UserInfo {\n        address walletAddress;\n        string name;\n        string residentialAddress;\n        string kycRegisterationId;\n        bool updation;\n    }\n\n    mapping( address => KYC ) public allowed;\n    mapping( address => UserInfo ) public userDetails;\n\n    // ============= Admin Functionalities  =========================\n    function setKYCComleted(address user, uint256 teir) public onlyOwner {\n        require(!allowed[user].approval, \"User already approved\");\n\n        kycApprovedUser = kycApprovedUser + 1; \n        allowed[user] = KYC(Status.approved, true, teir);\n    }\n\n    function updateKycTeir(address user, uint256 teir) public onlyOwner {\n        KYC memory kyc = allowed[user];\n        kyc.teir = teir;\n        allowed[user] = kyc;\n    }\n\n    function setKYCRevoked(address user) public onlyOwner {\n        require(allowed[user].approval, \"User not yet approved\");\n\n        kycApprovedUser = kycApprovedUser - 1;\n        allowed[user] = KYC(Status.rejected, false, 0);\n    }\n\n    // ============= User Functionalists ==============================\n\n    function isAllowed(address user) public view returns (bool, uint256) {\n        return (allowed[user].approval, allowed[user].teir);\n    }\n\n    function uploadKycDocuments(\n        string memory name,\n        string memory residentialAddress,\n        string memory kycRegisterationId\n    ) public {\n        if(userDetails[msg.sender].updation) {\n            UserInfo memory userInfo = userDetails[msg.sender];\n            \n            userInfo.name = name;\n            userInfo.residentialAddress = residentialAddress;\n            userInfo.kycRegisterationId = kycRegisterationId;\n\n            userDetails[msg.sender] = userInfo;\n        } else {\n            userDetails[msg.sender] = UserInfo(\n                msg.sender,\n                name,\n                residentialAddress,\n                kycRegisterationId,\n                true\n            );\n        }\n    }\n}",
  "sourcePath": "/Users/sagarbehara/Work/Kyc-token/contracts/Kyc.sol",
  "compiler": {
    "name": "solc",
    "version": "0.8.0+commit.c7dfd78e.Emscripten.clang"
  },
  "schemaVersion": "3.4.1",
  "updatedAt": "2022-06-08T09:31:03.369Z",
  "devdoc": {
    "kind": "dev",
    "methods": {
      "owner()": {
        "details": "Returns the address of the current owner."
      },
      "renounceOwnership()": {
        "details": "Leaves the contract without owner. It will not be possible to call `onlyOwner` functions anymore. Can only be called by the current owner. NOTE: Renouncing ownership will leave the contract without an owner, thereby removing any functionality that is only available to the owner."
      },
      "transferOwnership(address)": {
        "details": "Transfers ownership of the contract to a new account (`newOwner`). Can only be called by the current owner."
      }
    },
    "version": 1
  },
  "userdoc": {
    "kind": "user",
    "methods": {},
    "version": 1
  }
}